{
  "contractName": "Chip",
  "abi": [
    {
      "inputs": [],
      "stateMutability": "nonpayable",
      "type": "constructor"
    },
    {
      "anonymous": false,
      "inputs": [
        {
          "indexed": true,
          "internalType": "address",
          "name": "account",
          "type": "address"
        },
        {
          "indexed": true,
          "internalType": "address",
          "name": "operator",
          "type": "address"
        },
        {
          "indexed": false,
          "internalType": "bool",
          "name": "approved",
          "type": "bool"
        }
      ],
      "name": "ApprovalForAll",
      "type": "event"
    },
    {
      "anonymous": false,
      "inputs": [
        {
          "indexed": true,
          "internalType": "address",
          "name": "previousOwner",
          "type": "address"
        },
        {
          "indexed": true,
          "internalType": "address",
          "name": "newOwner",
          "type": "address"
        }
      ],
      "name": "OwnershipTransferred",
      "type": "event"
    },
    {
      "anonymous": false,
      "inputs": [
        {
          "indexed": true,
          "internalType": "address",
          "name": "operator",
          "type": "address"
        },
        {
          "indexed": true,
          "internalType": "address",
          "name": "from",
          "type": "address"
        },
        {
          "indexed": true,
          "internalType": "address",
          "name": "to",
          "type": "address"
        },
        {
          "indexed": false,
          "internalType": "uint256[]",
          "name": "ids",
          "type": "uint256[]"
        },
        {
          "indexed": false,
          "internalType": "uint256[]",
          "name": "values",
          "type": "uint256[]"
        }
      ],
      "name": "TransferBatch",
      "type": "event"
    },
    {
      "anonymous": false,
      "inputs": [
        {
          "indexed": true,
          "internalType": "address",
          "name": "operator",
          "type": "address"
        },
        {
          "indexed": true,
          "internalType": "address",
          "name": "from",
          "type": "address"
        },
        {
          "indexed": true,
          "internalType": "address",
          "name": "to",
          "type": "address"
        },
        {
          "indexed": false,
          "internalType": "uint256",
          "name": "id",
          "type": "uint256"
        },
        {
          "indexed": false,
          "internalType": "uint256",
          "name": "value",
          "type": "uint256"
        }
      ],
      "name": "TransferSingle",
      "type": "event"
    },
    {
      "anonymous": false,
      "inputs": [
        {
          "indexed": false,
          "internalType": "string",
          "name": "value",
          "type": "string"
        },
        {
          "indexed": true,
          "internalType": "uint256",
          "name": "id",
          "type": "uint256"
        }
      ],
      "name": "URI",
      "type": "event"
    },
    {
      "inputs": [],
      "name": "ChipId",
      "outputs": [
        {
          "internalType": "uint256",
          "name": "",
          "type": "uint256"
        }
      ],
      "stateMutability": "view",
      "type": "function",
      "constant": true
    },
    {
      "inputs": [
        {
          "internalType": "address",
          "name": "account",
          "type": "address"
        },
        {
          "internalType": "uint256",
          "name": "id",
          "type": "uint256"
        }
      ],
      "name": "balanceOf",
      "outputs": [
        {
          "internalType": "uint256",
          "name": "",
          "type": "uint256"
        }
      ],
      "stateMutability": "view",
      "type": "function",
      "constant": true
    },
    {
      "inputs": [
        {
          "internalType": "address[]",
          "name": "accounts",
          "type": "address[]"
        },
        {
          "internalType": "uint256[]",
          "name": "ids",
          "type": "uint256[]"
        }
      ],
      "name": "balanceOfBatch",
      "outputs": [
        {
          "internalType": "uint256[]",
          "name": "",
          "type": "uint256[]"
        }
      ],
      "stateMutability": "view",
      "type": "function",
      "constant": true
    },
    {
      "inputs": [
        {
          "internalType": "address",
          "name": "account",
          "type": "address"
        },
        {
          "internalType": "address",
          "name": "operator",
          "type": "address"
        }
      ],
      "name": "isApprovedForAll",
      "outputs": [
        {
          "internalType": "bool",
          "name": "",
          "type": "bool"
        }
      ],
      "stateMutability": "view",
      "type": "function",
      "constant": true
    },
    {
      "inputs": [],
      "name": "owner",
      "outputs": [
        {
          "internalType": "address",
          "name": "",
          "type": "address"
        }
      ],
      "stateMutability": "view",
      "type": "function",
      "constant": true
    },
    {
      "inputs": [],
      "name": "renounceOwnership",
      "outputs": [],
      "stateMutability": "nonpayable",
      "type": "function"
    },
    {
      "inputs": [
        {
          "internalType": "address",
          "name": "from",
          "type": "address"
        },
        {
          "internalType": "address",
          "name": "to",
          "type": "address"
        },
        {
          "internalType": "uint256[]",
          "name": "ids",
          "type": "uint256[]"
        },
        {
          "internalType": "uint256[]",
          "name": "amounts",
          "type": "uint256[]"
        },
        {
          "internalType": "bytes",
          "name": "data",
          "type": "bytes"
        }
      ],
      "name": "safeBatchTransferFrom",
      "outputs": [],
      "stateMutability": "nonpayable",
      "type": "function"
    },
    {
      "inputs": [
        {
          "internalType": "address",
          "name": "from",
          "type": "address"
        },
        {
          "internalType": "address",
          "name": "to",
          "type": "address"
        },
        {
          "internalType": "uint256",
          "name": "id",
          "type": "uint256"
        },
        {
          "internalType": "uint256",
          "name": "amount",
          "type": "uint256"
        },
        {
          "internalType": "bytes",
          "name": "data",
          "type": "bytes"
        }
      ],
      "name": "safeTransferFrom",
      "outputs": [],
      "stateMutability": "nonpayable",
      "type": "function"
    },
    {
      "inputs": [
        {
          "internalType": "address",
          "name": "operator",
          "type": "address"
        },
        {
          "internalType": "bool",
          "name": "approved",
          "type": "bool"
        }
      ],
      "name": "setApprovalForAll",
      "outputs": [],
      "stateMutability": "nonpayable",
      "type": "function"
    },
    {
      "inputs": [
        {
          "internalType": "bytes4",
          "name": "interfaceId",
          "type": "bytes4"
        }
      ],
      "name": "supportsInterface",
      "outputs": [
        {
          "internalType": "bool",
          "name": "",
          "type": "bool"
        }
      ],
      "stateMutability": "view",
      "type": "function",
      "constant": true
    },
    {
      "inputs": [
        {
          "internalType": "address",
          "name": "newOwner",
          "type": "address"
        }
      ],
      "name": "transferOwnership",
      "outputs": [],
      "stateMutability": "nonpayable",
      "type": "function"
    },
    {
      "inputs": [
        {
          "internalType": "uint256",
          "name": "",
          "type": "uint256"
        }
      ],
      "name": "uri",
      "outputs": [
        {
          "internalType": "string",
          "name": "",
          "type": "string"
        }
      ],
      "stateMutability": "view",
      "type": "function",
      "constant": true
    },
    {
      "inputs": [
        {
          "internalType": "address",
          "name": "to",
          "type": "address"
        },
        {
          "internalType": "uint256",
          "name": "id",
          "type": "uint256"
        },
        {
          "internalType": "uint256",
          "name": "amount",
          "type": "uint256"
        }
      ],
      "name": "mint",
      "outputs": [],
      "stateMutability": "nonpayable",
      "type": "function"
    },
    {
      "inputs": [
        {
          "internalType": "address",
          "name": "from",
          "type": "address"
        },
        {
          "internalType": "uint256",
          "name": "id",
          "type": "uint256"
        },
        {
          "internalType": "uint256",
          "name": "amount",
          "type": "uint256"
        }
      ],
      "name": "burn",
      "outputs": [],
      "stateMutability": "nonpayable",
      "type": "function"
    }
  ],
  "bytecode": "0x60806040523480156200001157600080fd5b506040518060200160405280600081525062000033816200007f60201b60201c565b5062000054620000486200009b60201b60201c565b620000a360201b60201c565b620000793360006001604051806020016040528060008152506200016960201b60201c565b62000d49565b806002908051906020019062000097929190620005c4565b5050565b600033905090565b6000600360009054906101000a900473ffffffffffffffffffffffffffffffffffffffff16905081600360006101000a81548173ffffffffffffffffffffffffffffffffffffffff021916908373ffffffffffffffffffffffffffffffffffffffff1602179055508173ffffffffffffffffffffffffffffffffffffffff168173ffffffffffffffffffffffffffffffffffffffff167f8be0079c531659141344cd1fd0a4f28419497f9722a3daafe3b4186f6b6457e060405160405180910390a35050565b600073ffffffffffffffffffffffffffffffffffffffff168473ffffffffffffffffffffffffffffffffffffffff161415620001dc576040517f08c379a0000000000000000000000000000000000000000000000000000000008152600401620001d390620006fb565b60405180910390fd5b6000620001ee6200009b60201b60201c565b9050620002278160008762000209886200032e60201b60201c565b6200021a886200032e60201b60201c565b87620003af60201b60201c565b8260008086815260200190815260200160002060008773ffffffffffffffffffffffffffffffffffffffff1673ffffffffffffffffffffffffffffffffffffffff168152602001908152602001600020600082825462000288919062000756565b925050819055508473ffffffffffffffffffffffffffffffffffffffff16600073ffffffffffffffffffffffffffffffffffffffff168273ffffffffffffffffffffffffffffffffffffffff167fc3d58168c5ae7397731d063d5bbf3d657854427343f4c083240f7aacaa2d0f62878760405162000308929190620007c4565b60405180910390a46200032781600087878787620003b760201b60201c565b5050505050565b60606000600167ffffffffffffffff81111562000350576200034f620007f1565b5b6040519080825280602002602001820160405280156200037f5781602001602082028036833780820191505090505b50905082816000815181106200039a576200039962000820565b5b60200260200101818152505080915050919050565b505050505050565b620003e38473ffffffffffffffffffffffffffffffffffffffff16620005b160201b62000b451760201c565b15620005a9578373ffffffffffffffffffffffffffffffffffffffff1663f23a6e6187878686866040518663ffffffff1660e01b81526004016200042c95949392919062000938565b6020604051808303816000875af19250505080156200046b57506040513d601f19601f8201168201806040525081019062000468919062000a08565b60015b6200051d576200047a62000a47565b806308c379a01415620004de57506200049262000aa2565b806200049f5750620004e0565b806040517f08c379a0000000000000000000000000000000000000000000000000000000008152600401620004d5919062000b90565b60405180910390fd5b505b6040517f08c379a0000000000000000000000000000000000000000000000000000000008152600401620005149062000c2a565b60405180910390fd5b63f23a6e6160e01b7bffffffffffffffffffffffffffffffffffffffffffffffffffffffff1916817bffffffffffffffffffffffffffffffffffffffffffffffffffffffff191614620005a7576040517f08c379a00000000000000000000000000000000000000000000000000000000081526004016200059e9062000cc2565b60405180910390fd5b505b505050505050565b600080823b905060008111915050919050565b828054620005d29062000d13565b90600052602060002090601f016020900481019282620005f6576000855562000642565b82601f106200061157805160ff191683800117855562000642565b8280016001018555821562000642579182015b828111156200064157825182559160200191906001019062000624565b5b50905062000651919062000655565b5090565b5b808211156200067057600081600090555060010162000656565b5090565b600082825260208201905092915050565b7f455243313135353a206d696e7420746f20746865207a65726f2061646472657360008201527f7300000000000000000000000000000000000000000000000000000000000000602082015250565b6000620006e360218362000674565b9150620006f08262000685565b604082019050919050565b600060208201905081810360008301526200071681620006d4565b9050919050565b6000819050919050565b7f4e487b7100000000000000000000000000000000000000000000000000000000600052601160045260246000fd5b600062000763826200071d565b915062000770836200071d565b9250827fffffffffffffffffffffffffffffffffffffffffffffffffffffffffffffffff03821115620007a857620007a762000727565b5b828201905092915050565b620007be816200071d565b82525050565b6000604082019050620007db6000830185620007b3565b620007ea6020830184620007b3565b9392505050565b7f4e487b7100000000000000000000000000000000000000000000000000000000600052604160045260246000fd5b7f4e487b7100000000000000000000000000000000000000000000000000000000600052603260045260246000fd5b600073ffffffffffffffffffffffffffffffffffffffff82169050919050565b60006200087c826200084f565b9050919050565b6200088e816200086f565b82525050565b600081519050919050565b600082825260208201905092915050565b60005b83811015620008d0578082015181840152602081019050620008b3565b83811115620008e0576000848401525b50505050565b6000601f19601f8301169050919050565b6000620009048262000894565b6200091081856200089f565b935062000922818560208601620008b0565b6200092d81620008e6565b840191505092915050565b600060a0820190506200094f600083018862000883565b6200095e602083018762000883565b6200096d6040830186620007b3565b6200097c6060830185620007b3565b8181036080830152620009908184620008f7565b90509695505050505050565b6000604051905090565b600080fd5b60007fffffffff0000000000000000000000000000000000000000000000000000000082169050919050565b620009e281620009ab565b8114620009ee57600080fd5b50565b60008151905062000a0281620009d7565b92915050565b60006020828403121562000a215762000a20620009a6565b5b600062000a3184828501620009f1565b91505092915050565b60008160e01c9050919050565b600060033d111562000a695760046000803e62000a6660005162000a3a565b90505b90565b62000a7782620008e6565b810181811067ffffffffffffffff8211171562000a995762000a98620007f1565b5b80604052505050565b600060443d101562000ab45762000b41565b62000abe6200099c565b60043d036004823e80513d602482011167ffffffffffffffff8211171562000ae857505062000b41565b808201805167ffffffffffffffff81111562000b08575050505062000b41565b80602083010160043d03850181111562000b2757505050505062000b41565b62000b388260200185018662000a6c565b82955050505050505b90565b600081519050919050565b600062000b5c8262000b44565b62000b68818562000674565b935062000b7a818560208601620008b0565b62000b8581620008e6565b840191505092915050565b6000602082019050818103600083015262000bac818462000b4f565b905092915050565b7f455243313135353a207472616e7366657220746f206e6f6e204552433131353560008201527f526563656976657220696d706c656d656e746572000000000000000000000000602082015250565b600062000c1260348362000674565b915062000c1f8262000bb4565b604082019050919050565b6000602082019050818103600083015262000c458162000c03565b9050919050565b7f455243313135353a204552433131353552656365697665722072656a6563746560008201527f6420746f6b656e73000000000000000000000000000000000000000000000000602082015250565b600062000caa60288362000674565b915062000cb78262000c4c565b604082019050919050565b6000602082019050818103600083015262000cdd8162000c9b565b9050919050565b7f4e487b7100000000000000000000000000000000000000000000000000000000600052602260045260246000fd5b6000600282049050600182168062000d2c57607f821691505b6020821081141562000d435762000d4262000ce4565b5b50919050565b61317b8062000d596000396000f3fe608060405234801561001057600080fd5b50600436106100e95760003560e01c80638da5cb5b1161008c578063e985e9c511610066578063e985e9c514610248578063f242432a14610278578063f2fde38b14610294578063f5298aca146102b0576100e9565b80638da5cb5b146101f0578063a22cb4651461020e578063b2a2cea31461022a576100e9565b8063156e29f6116100c8578063156e29f61461017e5780632eb2c2d61461019a5780634e1273f4146101b6578063715018a6146101e6576100e9565b8062fdd58e146100ee57806301ffc9a71461011e5780630e89341c1461014e575b600080fd5b61010860048036038101906101039190611c20565b6102cc565b6040516101159190611c6f565b60405180910390f35b61013860048036038101906101339190611ce2565b610395565b6040516101459190611d2a565b60405180910390f35b61016860048036038101906101639190611d45565b610477565b6040516101759190611e0b565b60405180910390f35b61019860048036038101906101939190611e2d565b61050b565b005b6101b460048036038101906101af919061207d565b6105cd565b005b6101d060048036038101906101cb919061220f565b61066e565b6040516101dd9190612345565b60405180910390f35b6101ee610787565b005b6101f861080f565b6040516102059190612376565b60405180910390f35b610228600480360381019061022391906123bd565b610839565b005b61023261084f565b60405161023f9190611c6f565b60405180910390f35b610262600480360381019061025d91906123fd565b610854565b60405161026f9190611d2a565b60405180910390f35b610292600480360381019061028d919061243d565b6108e8565b005b6102ae60048036038101906102a991906124d4565b610989565b005b6102ca60048036038101906102c59190611e2d565b610a81565b005b60008073ffffffffffffffffffffffffffffffffffffffff168373ffffffffffffffffffffffffffffffffffffffff16141561033d576040517f08c379a000000000000000000000000000000000000000000000000000000000815260040161033490612573565b60405180910390fd5b60008083815260200190815260200160002060008473ffffffffffffffffffffffffffffffffffffffff1673ffffffffffffffffffffffffffffffffffffffff16815260200190815260200160002054905092915050565b60007fd9b67a26000000000000000000000000000000000000000000000000000000007bffffffffffffffffffffffffffffffffffffffffffffffffffffffff1916827bffffffffffffffffffffffffffffffffffffffffffffffffffffffff1916148061046057507f0e89341c000000000000000000000000000000000000000000000000000000007bffffffffffffffffffffffffffffffffffffffffffffffffffffffff1916827bffffffffffffffffffffffffffffffffffffffffffffffffffffffff1916145b80610470575061046f82610b58565b5b9050919050565b606060028054610486906125c2565b80601f01602080910402602001604051908101604052809291908181526020018280546104b2906125c2565b80156104ff5780601f106104d4576101008083540402835291602001916104ff565b820191906000526020600020905b8154815290600101906020018083116104e257829003601f168201915b50505050509050919050565b610513610bc2565b73ffffffffffffffffffffffffffffffffffffffff1661053161080f565b73ffffffffffffffffffffffffffffffffffffffff1614610587576040517f08c379a000000000000000000000000000000000000000000000000000000000815260040161057e90612640565b60405180910390fd5b6105c88383836040518060400160405280600181526020017f2000000000000000000000000000000000000000000000000000000000000000815250610bca565b505050565b6105d5610bc2565b73ffffffffffffffffffffffffffffffffffffffff168573ffffffffffffffffffffffffffffffffffffffff16148061061b575061061a85610615610bc2565b610854565b5b61065a576040517f08c379a0000000000000000000000000000000000000000000000000000000008152600401610651906126d2565b60405180910390fd5b6106678585858585610d60565b5050505050565b606081518351146106b4576040517f08c379a00000000000000000000000000000000000000000000000000000000081526004016106ab90612764565b60405180910390fd5b6000835167ffffffffffffffff8111156106d1576106d0611e85565b5b6040519080825280602002602001820160405280156106ff5781602001602082028036833780820191505090505b50905060005b845181101561077c5761074c85828151811061072457610723612784565b5b602002602001015185838151811061073f5761073e612784565b5b60200260200101516102cc565b82828151811061075f5761075e612784565b5b60200260200101818152505080610775906127e2565b9050610705565b508091505092915050565b61078f610bc2565b73ffffffffffffffffffffffffffffffffffffffff166107ad61080f565b73ffffffffffffffffffffffffffffffffffffffff1614610803576040517f08c379a00000000000000000000000000000000000000000000000000000000081526004016107fa90612640565b60405180910390fd5b61080d6000611074565b565b6000600360009054906101000a900473ffffffffffffffffffffffffffffffffffffffff16905090565b61084b610844610bc2565b838361113a565b5050565b600081565b6000600160008473ffffffffffffffffffffffffffffffffffffffff1673ffffffffffffffffffffffffffffffffffffffff16815260200190815260200160002060008373ffffffffffffffffffffffffffffffffffffffff1673ffffffffffffffffffffffffffffffffffffffff16815260200190815260200160002060009054906101000a900460ff16905092915050565b6108f0610bc2565b73ffffffffffffffffffffffffffffffffffffffff168573ffffffffffffffffffffffffffffffffffffffff161480610936575061093585610930610bc2565b610854565b5b610975576040517f08c379a000000000000000000000000000000000000000000000000000000000815260040161096c9061289d565b60405180910390fd5b61098285858585856112a7565b5050505050565b610991610bc2565b73ffffffffffffffffffffffffffffffffffffffff166109af61080f565b73ffffffffffffffffffffffffffffffffffffffff1614610a05576040517f08c379a00000000000000000000000000000000000000000000000000000000081526004016109fc90612640565b60405180910390fd5b600073ffffffffffffffffffffffffffffffffffffffff168173ffffffffffffffffffffffffffffffffffffffff161415610a75576040517f08c379a0000000000000000000000000000000000000000000000000000000008152600401610a6c9061292f565b60405180910390fd5b610a7e81611074565b50565b610a89610bc2565b73ffffffffffffffffffffffffffffffffffffffff16610aa761080f565b73ffffffffffffffffffffffffffffffffffffffff1614610afd576040517f08c379a0000000000000000000000000000000000000000000000000000000008152600401610af490612640565b60405180910390fd5b8273ffffffffffffffffffffffffffffffffffffffff163373ffffffffffffffffffffffffffffffffffffffff1614610b3557600080fd5b610b40838383611529565b505050565b600080823b905060008111915050919050565b60007f01ffc9a7000000000000000000000000000000000000000000000000000000007bffffffffffffffffffffffffffffffffffffffffffffffffffffffff1916827bffffffffffffffffffffffffffffffffffffffffffffffffffffffff1916149050919050565b600033905090565b600073ffffffffffffffffffffffffffffffffffffffff168473ffffffffffffffffffffffffffffffffffffffff161415610c3a576040517f08c379a0000000000000000000000000000000000000000000000000000000008152600401610c31906129c1565b60405180910390fd5b6000610c44610bc2565b9050610c6581600087610c5688611746565b610c5f88611746565b876117c0565b8260008086815260200190815260200160002060008773ffffffffffffffffffffffffffffffffffffffff1673ffffffffffffffffffffffffffffffffffffffff1681526020019081526020016000206000828254610cc491906129e1565b925050819055508473ffffffffffffffffffffffffffffffffffffffff16600073ffffffffffffffffffffffffffffffffffffffff168273ffffffffffffffffffffffffffffffffffffffff167fc3d58168c5ae7397731d063d5bbf3d657854427343f4c083240f7aacaa2d0f628787604051610d42929190612a37565b60405180910390a4610d59816000878787876117c8565b5050505050565b8151835114610da4576040517f08c379a0000000000000000000000000000000000000000000000000000000008152600401610d9b90612ad2565b60405180910390fd5b600073ffffffffffffffffffffffffffffffffffffffff168473ffffffffffffffffffffffffffffffffffffffff161415610e14576040517f08c379a0000000000000000000000000000000000000000000000000000000008152600401610e0b90612b64565b60405180910390fd5b6000610e1e610bc2565b9050610e2e8187878787876117c0565b60005b8451811015610fdf576000858281518110610e4f57610e4e612784565b5b602002602001015190506000858381518110610e6e57610e6d612784565b5b60200260200101519050600080600084815260200190815260200160002060008b73ffffffffffffffffffffffffffffffffffffffff1673ffffffffffffffffffffffffffffffffffffffff16815260200190815260200160002054905081811015610f0f576040517f08c379a0000000000000000000000000000000000000000000000000000000008152600401610f0690612bf6565b60405180910390fd5b81810360008085815260200190815260200160002060008c73ffffffffffffffffffffffffffffffffffffffff1673ffffffffffffffffffffffffffffffffffffffff168152602001908152602001600020819055508160008085815260200190815260200160002060008b73ffffffffffffffffffffffffffffffffffffffff1673ffffffffffffffffffffffffffffffffffffffff1681526020019081526020016000206000828254610fc491906129e1565b9250508190555050505080610fd8906127e2565b9050610e31565b508473ffffffffffffffffffffffffffffffffffffffff168673ffffffffffffffffffffffffffffffffffffffff168273ffffffffffffffffffffffffffffffffffffffff167f4a39dc06d4c0dbc64b70af90fd698a233a518aa5d07e595d983b8c0526c8f7fb8787604051611056929190612c16565b60405180910390a461106c8187878787876119a0565b505050505050565b6000600360009054906101000a900473ffffffffffffffffffffffffffffffffffffffff16905081600360006101000a81548173ffffffffffffffffffffffffffffffffffffffff021916908373ffffffffffffffffffffffffffffffffffffffff1602179055508173ffffffffffffffffffffffffffffffffffffffff168173ffffffffffffffffffffffffffffffffffffffff167f8be0079c531659141344cd1fd0a4f28419497f9722a3daafe3b4186f6b6457e060405160405180910390a35050565b8173ffffffffffffffffffffffffffffffffffffffff168373ffffffffffffffffffffffffffffffffffffffff1614156111a9576040517f08c379a00000000000000000000000000000000000000000000000000000000081526004016111a090612cbf565b60405180910390fd5b80600160008573ffffffffffffffffffffffffffffffffffffffff1673ffffffffffffffffffffffffffffffffffffffff16815260200190815260200160002060008473ffffffffffffffffffffffffffffffffffffffff1673ffffffffffffffffffffffffffffffffffffffff16815260200190815260200160002060006101000a81548160ff0219169083151502179055508173ffffffffffffffffffffffffffffffffffffffff168373ffffffffffffffffffffffffffffffffffffffff167f17307eab39ab6107e8899845ad3d59bd9653f200f220920489ca2b5937696c318360405161129a9190611d2a565b60405180910390a3505050565b600073ffffffffffffffffffffffffffffffffffffffff168473ffffffffffffffffffffffffffffffffffffffff161415611317576040517f08c379a000000000000000000000000000000000000000000000000000000000815260040161130e90612b64565b60405180910390fd5b6000611321610bc2565b905061134181878761133288611746565b61133b88611746565b876117c0565b600080600086815260200190815260200160002060008873ffffffffffffffffffffffffffffffffffffffff1673ffffffffffffffffffffffffffffffffffffffff168152602001908152602001600020549050838110156113d8576040517f08c379a00000000000000000000000000000000000000000000000000000000081526004016113cf90612bf6565b60405180910390fd5b83810360008087815260200190815260200160002060008973ffffffffffffffffffffffffffffffffffffffff1673ffffffffffffffffffffffffffffffffffffffff168152602001908152602001600020819055508360008087815260200190815260200160002060008873ffffffffffffffffffffffffffffffffffffffff1673ffffffffffffffffffffffffffffffffffffffff168152602001908152602001600020600082825461148d91906129e1565b925050819055508573ffffffffffffffffffffffffffffffffffffffff168773ffffffffffffffffffffffffffffffffffffffff168373ffffffffffffffffffffffffffffffffffffffff167fc3d58168c5ae7397731d063d5bbf3d657854427343f4c083240f7aacaa2d0f62888860405161150a929190612a37565b60405180910390a46115208288888888886117c8565b50505050505050565b600073ffffffffffffffffffffffffffffffffffffffff168373ffffffffffffffffffffffffffffffffffffffff161415611599576040517f08c379a000000000000000000000000000000000000000000000000000000000815260040161159090612d51565b60405180910390fd5b60006115a3610bc2565b90506115d3818560006115b587611746565b6115be87611746565b604051806020016040528060008152506117c0565b600080600085815260200190815260200160002060008673ffffffffffffffffffffffffffffffffffffffff1673ffffffffffffffffffffffffffffffffffffffff1681526020019081526020016000205490508281101561166a576040517f08c379a000000000000000000000000000000000000000000000000000000000815260040161166190612de3565b60405180910390fd5b82810360008086815260200190815260200160002060008773ffffffffffffffffffffffffffffffffffffffff1673ffffffffffffffffffffffffffffffffffffffff16815260200190815260200160002081905550600073ffffffffffffffffffffffffffffffffffffffff168573ffffffffffffffffffffffffffffffffffffffff168373ffffffffffffffffffffffffffffffffffffffff167fc3d58168c5ae7397731d063d5bbf3d657854427343f4c083240f7aacaa2d0f628787604051611737929190612a37565b60405180910390a45050505050565b60606000600167ffffffffffffffff81111561176557611764611e85565b5b6040519080825280602002602001820160405280156117935781602001602082028036833780820191505090505b50905082816000815181106117ab576117aa612784565b5b60200260200101818152505080915050919050565b505050505050565b6117e78473ffffffffffffffffffffffffffffffffffffffff16610b45565b15611998578373ffffffffffffffffffffffffffffffffffffffff1663f23a6e6187878686866040518663ffffffff1660e01b815260040161182d959493929190612e58565b6020604051808303816000875af192505050801561186957506040513d601f19601f820116820180604052508101906118669190612ec7565b60015b61190f57611875612f01565b806308c379a014156118d2575061188a612f23565b8061189557506118d4565b806040517f08c379a00000000000000000000000000000000000000000000000000000000081526004016118c99190611e0b565b60405180910390fd5b505b6040517f08c379a00000000000000000000000000000000000000000000000000000000081526004016119069061302b565b60405180910390fd5b63f23a6e6160e01b7bffffffffffffffffffffffffffffffffffffffffffffffffffffffff1916817bffffffffffffffffffffffffffffffffffffffffffffffffffffffff191614611996576040517f08c379a000000000000000000000000000000000000000000000000000000000815260040161198d906130bd565b60405180910390fd5b505b505050505050565b6119bf8473ffffffffffffffffffffffffffffffffffffffff16610b45565b15611b70578373ffffffffffffffffffffffffffffffffffffffff1663bc197c8187878686866040518663ffffffff1660e01b8152600401611a059594939291906130dd565b6020604051808303816000875af1925050508015611a4157506040513d601f19601f82011682018060405250810190611a3e9190612ec7565b60015b611ae757611a4d612f01565b806308c379a01415611aaa5750611a62612f23565b80611a6d5750611aac565b806040517f08c379a0000000000000000000000000000000000000000000000000000000008152600401611aa19190611e0b565b60405180910390fd5b505b6040517f08c379a0000000000000000000000000000000000000000000000000000000008152600401611ade9061302b565b60405180910390fd5b63bc197c8160e01b7bffffffffffffffffffffffffffffffffffffffffffffffffffffffff1916817bffffffffffffffffffffffffffffffffffffffffffffffffffffffff191614611b6e576040517f08c379a0000000000000000000000000000000000000000000000000000000008152600401611b65906130bd565b60405180910390fd5b505b505050505050565b6000604051905090565b600080fd5b600080fd5b600073ffffffffffffffffffffffffffffffffffffffff82169050919050565b6000611bb782611b8c565b9050919050565b611bc781611bac565b8114611bd257600080fd5b50565b600081359050611be481611bbe565b92915050565b6000819050919050565b611bfd81611bea565b8114611c0857600080fd5b50565b600081359050611c1a81611bf4565b92915050565b60008060408385031215611c3757611c36611b82565b5b6000611c4585828601611bd5565b9250506020611c5685828601611c0b565b9150509250929050565b611c6981611bea565b82525050565b6000602082019050611c846000830184611c60565b92915050565b60007fffffffff0000000000000000000000000000000000000000000000000000000082169050919050565b611cbf81611c8a565b8114611cca57600080fd5b50565b600081359050611cdc81611cb6565b92915050565b600060208284031215611cf857611cf7611b82565b5b6000611d0684828501611ccd565b91505092915050565b60008115159050919050565b611d2481611d0f565b82525050565b6000602082019050611d3f6000830184611d1b565b92915050565b600060208284031215611d5b57611d5a611b82565b5b6000611d6984828501611c0b565b91505092915050565b600081519050919050565b600082825260208201905092915050565b60005b83811015611dac578082015181840152602081019050611d91565b83811115611dbb576000848401525b50505050565b6000601f19601f8301169050919050565b6000611ddd82611d72565b611de78185611d7d565b9350611df7818560208601611d8e565b611e0081611dc1565b840191505092915050565b60006020820190508181036000830152611e258184611dd2565b905092915050565b600080600060608486031215611e4657611e45611b82565b5b6000611e5486828701611bd5565b9350506020611e6586828701611c0b565b9250506040611e7686828701611c0b565b9150509250925092565b600080fd5b7f4e487b7100000000000000000000000000000000000000000000000000000000600052604160045260246000fd5b611ebd82611dc1565b810181811067ffffffffffffffff82111715611edc57611edb611e85565b5b80604052505050565b6000611eef611b78565b9050611efb8282611eb4565b919050565b600067ffffffffffffffff821115611f1b57611f1a611e85565b5b602082029050602081019050919050565b600080fd5b6000611f44611f3f84611f00565b611ee5565b90508083825260208201905060208402830185811115611f6757611f66611f2c565b5b835b81811015611f905780611f7c8882611c0b565b845260208401935050602081019050611f69565b5050509392505050565b600082601f830112611faf57611fae611e80565b5b8135611fbf848260208601611f31565b91505092915050565b600080fd5b600067ffffffffffffffff821115611fe857611fe7611e85565b5b611ff182611dc1565b9050602081019050919050565b82818337600083830152505050565b600061202061201b84611fcd565b611ee5565b90508281526020810184848401111561203c5761203b611fc8565b5b612047848285611ffe565b509392505050565b600082601f83011261206457612063611e80565b5b813561207484826020860161200d565b91505092915050565b600080600080600060a0868803121561209957612098611b82565b5b60006120a788828901611bd5565b95505060206120b888828901611bd5565b945050604086013567ffffffffffffffff8111156120d9576120d8611b87565b5b6120e588828901611f9a565b935050606086013567ffffffffffffffff81111561210657612105611b87565b5b61211288828901611f9a565b925050608086013567ffffffffffffffff81111561213357612132611b87565b5b61213f8882890161204f565b9150509295509295909350565b600067ffffffffffffffff82111561216757612166611e85565b5b602082029050602081019050919050565b600061218b6121868461214c565b611ee5565b905080838252602082019050602084028301858111156121ae576121ad611f2c565b5b835b818110156121d757806121c38882611bd5565b8452602084019350506020810190506121b0565b5050509392505050565b600082601f8301126121f6576121f5611e80565b5b8135612206848260208601612178565b91505092915050565b6000806040838503121561222657612225611b82565b5b600083013567ffffffffffffffff81111561224457612243611b87565b5b612250858286016121e1565b925050602083013567ffffffffffffffff81111561227157612270611b87565b5b61227d85828601611f9a565b9150509250929050565b600081519050919050565b600082825260208201905092915050565b6000819050602082019050919050565b6122bc81611bea565b82525050565b60006122ce83836122b3565b60208301905092915050565b6000602082019050919050565b60006122f282612287565b6122fc8185612292565b9350612307836122a3565b8060005b8381101561233857815161231f88826122c2565b975061232a836122da565b92505060018101905061230b565b5085935050505092915050565b6000602082019050818103600083015261235f81846122e7565b905092915050565b61237081611bac565b82525050565b600060208201905061238b6000830184612367565b92915050565b61239a81611d0f565b81146123a557600080fd5b50565b6000813590506123b781612391565b92915050565b600080604083850312156123d4576123d3611b82565b5b60006123e285828601611bd5565b92505060206123f3858286016123a8565b9150509250929050565b6000806040838503121561241457612413611b82565b5b600061242285828601611bd5565b925050602061243385828601611bd5565b9150509250929050565b600080600080600060a0868803121561245957612458611b82565b5b600061246788828901611bd5565b955050602061247888828901611bd5565b945050604061248988828901611c0b565b935050606061249a88828901611c0b565b925050608086013567ffffffffffffffff8111156124bb576124ba611b87565b5b6124c78882890161204f565b9150509295509295909350565b6000602082840312156124ea576124e9611b82565b5b60006124f884828501611bd5565b91505092915050565b7f455243313135353a2062616c616e636520717565727920666f7220746865207a60008201527f65726f2061646472657373000000000000000000000000000000000000000000602082015250565b600061255d602b83611d7d565b915061256882612501565b604082019050919050565b6000602082019050818103600083015261258c81612550565b9050919050565b7f4e487b7100000000000000000000000000000000000000000000000000000000600052602260045260246000fd5b600060028204905060018216806125da57607f821691505b602082108114156125ee576125ed612593565b5b50919050565b7f4f776e61626c653a2063616c6c6572206973206e6f7420746865206f776e6572600082015250565b600061262a602083611d7d565b9150612635826125f4565b602082019050919050565b600060208201905081810360008301526126598161261d565b9050919050565b7f455243313135353a207472616e736665722063616c6c6572206973206e6f742060008201527f6f776e6572206e6f7220617070726f7665640000000000000000000000000000602082015250565b60006126bc603283611d7d565b91506126c782612660565b604082019050919050565b600060208201905081810360008301526126eb816126af565b9050919050565b7f455243313135353a206163636f756e747320616e6420696473206c656e67746860008201527f206d69736d617463680000000000000000000000000000000000000000000000602082015250565b600061274e602983611d7d565b9150612759826126f2565b604082019050919050565b6000602082019050818103600083015261277d81612741565b9050919050565b7f4e487b7100000000000000000000000000000000000000000000000000000000600052603260045260246000fd5b7f4e487b7100000000000000000000000000000000000000000000000000000000600052601160045260246000fd5b60006127ed82611bea565b91507fffffffffffffffffffffffffffffffffffffffffffffffffffffffffffffffff8214156128205761281f6127b3565b5b600182019050919050565b7f455243313135353a2063616c6c6572206973206e6f74206f776e6572206e6f7260008201527f20617070726f7665640000000000000000000000000000000000000000000000602082015250565b6000612887602983611d7d565b91506128928261282b565b604082019050919050565b600060208201905081810360008301526128b68161287a565b9050919050565b7f4f776e61626c653a206e6577206f776e657220697320746865207a65726f206160008201527f6464726573730000000000000000000000000000000000000000000000000000602082015250565b6000612919602683611d7d565b9150612924826128bd565b604082019050919050565b600060208201905081810360008301526129488161290c565b9050919050565b7f455243313135353a206d696e7420746f20746865207a65726f2061646472657360008201527f7300000000000000000000000000000000000000000000000000000000000000602082015250565b60006129ab602183611d7d565b91506129b68261294f565b604082019050919050565b600060208201905081810360008301526129da8161299e565b9050919050565b60006129ec82611bea565b91506129f783611bea565b9250827fffffffffffffffffffffffffffffffffffffffffffffffffffffffffffffffff03821115612a2c57612a2b6127b3565b5b828201905092915050565b6000604082019050612a4c6000830185611c60565b612a596020830184611c60565b9392505050565b7f455243313135353a2069647320616e6420616d6f756e7473206c656e6774682060008201527f6d69736d61746368000000000000000000000000000000000000000000000000602082015250565b6000612abc602883611d7d565b9150612ac782612a60565b604082019050919050565b60006020820190508181036000830152612aeb81612aaf565b9050919050565b7f455243313135353a207472616e7366657220746f20746865207a65726f20616460008201527f6472657373000000000000000000000000000000000000000000000000000000602082015250565b6000612b4e602583611d7d565b9150612b5982612af2565b604082019050919050565b60006020820190508181036000830152612b7d81612b41565b9050919050565b7f455243313135353a20696e73756666696369656e742062616c616e636520666f60008201527f72207472616e7366657200000000000000000000000000000000000000000000602082015250565b6000612be0602a83611d7d565b9150612beb82612b84565b604082019050919050565b60006020820190508181036000830152612c0f81612bd3565b9050919050565b60006040820190508181036000830152612c3081856122e7565b90508181036020830152612c4481846122e7565b90509392505050565b7f455243313135353a2073657474696e6720617070726f76616c2073746174757360008201527f20666f722073656c660000000000000000000000000000000000000000000000602082015250565b6000612ca9602983611d7d565b9150612cb482612c4d565b604082019050919050565b60006020820190508181036000830152612cd881612c9c565b9050919050565b7f455243313135353a206275726e2066726f6d20746865207a65726f206164647260008201527f6573730000000000000000000000000000000000000000000000000000000000602082015250565b6000612d3b602383611d7d565b9150612d4682612cdf565b604082019050919050565b60006020820190508181036000830152612d6a81612d2e565b9050919050565b7f455243313135353a206275726e20616d6f756e7420657863656564732062616c60008201527f616e636500000000000000000000000000000000000000000000000000000000602082015250565b6000612dcd602483611d7d565b9150612dd882612d71565b604082019050919050565b60006020820190508181036000830152612dfc81612dc0565b9050919050565b600081519050919050565b600082825260208201905092915050565b6000612e2a82612e03565b612e348185612e0e565b9350612e44818560208601611d8e565b612e4d81611dc1565b840191505092915050565b600060a082019050612e6d6000830188612367565b612e7a6020830187612367565b612e876040830186611c60565b612e946060830185611c60565b8181036080830152612ea68184612e1f565b90509695505050505050565b600081519050612ec181611cb6565b92915050565b600060208284031215612edd57612edc611b82565b5b6000612eeb84828501612eb2565b91505092915050565b60008160e01c9050919050565b600060033d1115612f205760046000803e612f1d600051612ef4565b90505b90565b600060443d1015612f3357612fb6565b612f3b611b78565b60043d036004823e80513d602482011167ffffffffffffffff82111715612f63575050612fb6565b808201805167ffffffffffffffff811115612f815750505050612fb6565b80602083010160043d038501811115612f9e575050505050612fb6565b612fad82602001850186611eb4565b82955050505050505b90565b7f455243313135353a207472616e7366657220746f206e6f6e204552433131353560008201527f526563656976657220696d706c656d656e746572000000000000000000000000602082015250565b6000613015603483611d7d565b915061302082612fb9565b604082019050919050565b6000602082019050818103600083015261304481613008565b9050919050565b7f455243313135353a204552433131353552656365697665722072656a6563746560008201527f6420746f6b656e73000000000000000000000000000000000000000000000000602082015250565b60006130a7602883611d7d565b91506130b28261304b565b604082019050919050565b600060208201905081810360008301526130d68161309a565b9050919050565b600060a0820190506130f26000830188612367565b6130ff6020830187612367565b818103604083015261311181866122e7565b9050818103606083015261312581856122e7565b905081810360808301526131398184612e1f565b9050969550505050505056fea2646970667358221220a3a87325edb528df4c8e683278a475e3fecfcde785a333c7468a2704917d5b2364736f6c634300080a0033",
  "immutableReferences": {},
  "source": "// SPDX-License-Identifier: MIT\r\npragma solidity >=0.4.0 <0.9.0;\r\n\r\nimport \"@openzeppelin/contracts/token/ERC1155/ERC1155.sol\";\r\nimport \"@openzeppelin/contracts/access/Ownable.sol\";\r\n\r\n\r\ncontract Chip is ERC1155,Ownable{\r\n        uint256 public constant ChipId = 0;\r\n        constructor() ERC1155(\"\") {\r\n            _mint(msg.sender , ChipId , 1 , \"\");\r\n        }\r\n\r\n        function mint(address to,uint256 id,uint256 amount) public onlyOwner {\r\n            _mint(to , id , amount , \" \");\r\n        }\r\n\r\n        function burn(address from,uint256 id, uint256 amount) public onlyOwner {\r\n            require(msg.sender == from);\r\n            _burn( from ,id ,amount);\r\n        }\r\n\r\n}",
  "sourcePath": "C:\\Users\\Rohit\\OneDrive\\Desktop\\ETH\\contracts\\Chip.sol",
  "compiler": {
    "name": "solc",
    "version": "0.8.10+commit.fc410830.Emscripten.clang"
  },
  "schemaVersion": "3.4.4",
  "updatedAt": "2021-12-29T12:17:39.498Z",
  "networkType": "ethereum",
  "devdoc": {
    "kind": "dev",
    "methods": {
      "balanceOf(address,uint256)": {
        "details": "See {IERC1155-balanceOf}. Requirements: - `account` cannot be the zero address."
      },
      "balanceOfBatch(address[],uint256[])": {
        "details": "See {IERC1155-balanceOfBatch}. Requirements: - `accounts` and `ids` must have the same length."
      },
      "isApprovedForAll(address,address)": {
        "details": "See {IERC1155-isApprovedForAll}."
      },
      "owner()": {
        "details": "Returns the address of the current owner."
      },
      "renounceOwnership()": {
        "details": "Leaves the contract without owner. It will not be possible to call `onlyOwner` functions anymore. Can only be called by the current owner. NOTE: Renouncing ownership will leave the contract without an owner, thereby removing any functionality that is only available to the owner."
      },
      "safeBatchTransferFrom(address,address,uint256[],uint256[],bytes)": {
        "details": "See {IERC1155-safeBatchTransferFrom}."
      },
      "safeTransferFrom(address,address,uint256,uint256,bytes)": {
        "details": "See {IERC1155-safeTransferFrom}."
      },
      "setApprovalForAll(address,bool)": {
        "details": "See {IERC1155-setApprovalForAll}."
      },
      "supportsInterface(bytes4)": {
        "details": "See {IERC165-supportsInterface}."
      },
      "transferOwnership(address)": {
        "details": "Transfers ownership of the contract to a new account (`newOwner`). Can only be called by the current owner."
      },
      "uri(uint256)": {
        "details": "See {IERC1155MetadataURI-uri}. This implementation returns the same URI for *all* token types. It relies on the token type ID substitution mechanism https://eips.ethereum.org/EIPS/eip-1155#metadata[defined in the EIP]. Clients calling this function must replace the `\\{id\\}` substring with the actual token type ID."
      }
    },
    "version": 1
  },
  "userdoc": {
    "kind": "user",
    "methods": {},
    "version": 1
  }
}